{
  "contractName": "C",
  "abi": [
    {
      "constant": true,
      "inputs": [],
      "name": "my_val",
      "outputs": [
        {
          "name": "val",
          "type": "uint256"
        }
      ],
      "payable": false,
      "stateMutability": "view",
      "type": "function"
    },
    {
      "constant": false,
      "inputs": [
        {
          "name": "new_val",
          "type": "uint256"
        }
      ],
      "name": "set",
      "outputs": [],
      "payable": false,
      "stateMutability": "nonpayable",
      "type": "function"
    }
  ],
  "bytecode": "0x608060405234801561001057600080fd5b5061017e806100206000396000f3fe60806040526004361061004c576000357c0100000000000000000000000000000000000000000000000000000000900463ffffffff16806360fe47b114610051578063d85b15131461008c575b600080fd5b34801561005d57600080fd5b5061008a6004803603602081101561007457600080fd5b81019080803590602001909291905050506100b7565b005b34801561009857600080fd5b506100a1610146565b6040518082815260200191505060405180910390f35b73__LibR__________________________________6396e2fa386000836040518363ffffffff167c0100000000000000000000000000000000000000000000000000000000028152600401808381526020018281526020019250505060006040518083038186803b15801561012b57600080fd5b505af415801561013f573d6000803e3d6000fd5b5050505050565b6000806000015490508156fea165627a7a72305820b7a1f794fac69af5838b1f7fa45d955345a0cfa60f97146ddccef0a46db84f380029",
  "source": "pragma solidity >=0.4.22 <0.6.0;\r\n\r\n//A typical use-case of the delegatecall opcode is to implement libraries.\r\n\r\nlibrary LibR{\r\n    struct Data { uint val;}\r\n\r\n    function set(Data storage self, uint new_val) public{\r\n        self.val = new_val;\r\n    }\r\n}\r\n\r\ncontract C{\r\n    LibR.Data public my_val;\r\n    \r\n    function set(uint new_val)public{\r\n        LibR.set(my_val,new_val);\r\n    }\r\n}",
  "sourcePath": "C:/Users/jbspl-0086/TruffleDappR/contracts/DelegateCall_1.sol",
  "compiler": {
    "name": "solc",
    "version": "0.5.0+commit.1d4f565a.Emscripten.clang"
  },
  "schemaVersion": "3.0.0",
  "updatedAt": "2018-12-31T12:14:55.640Z",
  "devdoc": {
    "methods": {}
  },
  "userdoc": {
    "methods": {}
  }
}