{
  "contractName": "LibR",
  "abi": [
    {
      "constant": false,
      "inputs": [
        {
          "name": "self",
          "type": "LibR.Data storage"
        },
        {
          "name": "new_val",
          "type": "uint256"
        }
      ],
      "name": "set",
      "outputs": [],
      "payable": false,
      "stateMutability": "nonpayable",
      "type": "function"
    }
  ],
  "bytecode": "0x60d561002f600b82828239805160001a6073146000811461001f57610021565bfe5b5030600052607381538281f3fe73000000000000000000000000000000000000000030146080604052600436106056576000357c0100000000000000000000000000000000000000000000000000000000900463ffffffff16806396e2fa3814605b575b600080fd5b818015606657600080fd5b50609a60048036036040811015607b57600080fd5b810190808035906020019092919080359060200190929190505050609c565b005b808260000181905550505056fea165627a7a72305820e4a5dd71703aba81ee90351b5829c594dffb9b103ebfc8a3fadd79b33a01b7640029",
  "source": "pragma solidity >=0.4.22 <0.6.0;\r\n\r\n//A typical use-case of the delegatecall opcode is to implement libraries.\r\n\r\nlibrary LibR{\r\n    struct Data { uint val;}\r\n\r\n    function set(Data storage self, uint new_val) public{\r\n        self.val = new_val;\r\n    }\r\n}\r\n\r\ncontract C{\r\n    LibR.Data public my_val;\r\n    \r\n    function set(uint new_val)public{\r\n        LibR.set(my_val,new_val);\r\n    }\r\n}",
  "sourcePath": "C:/Users/jbspl-0086/TruffleDappR/contracts/DelegateCall_1.sol",
  "compiler": {
    "name": "solc",
    "version": "0.5.0+commit.1d4f565a.Emscripten.clang"
  },
  "schemaVersion": "3.0.0",
  "updatedAt": "2018-12-31T12:14:55.640Z",
  "devdoc": {
    "methods": {}
  },
  "userdoc": {
    "methods": {}
  }
}